:020000040020DA
:10200000781600208D2220006B6420006964200077
:1020100069642000696420006964200000000000F9
:10202000000000000000000000000000D16A200055
:102030006964200000000000EF6A2000CD642000E9
:10204000DF642000E5642000EB642000F1642000E0
:1020500000000000D3642000D964200069642000DF
:102060006964200000000000000000000000000083
:102070000000000000000000696420000000000073
:102080000000000000000000696420006964200076
:10209000696420006964200069642000696420008C
:1020A000696420006964200069642000696420007C
:1020B000696420006964200069642000696420006C
:1020C000696420006964200069642000696420005C
:1020D0006964200000000000000000000000000013
:1020E00000000000000000000000000000000000F0
:1020F0000000000000000000F53720000538200037
:1021000000000000000000000000000000000000CF
:1021100000000000000000000000000000000000BF
:1021200000000000000000000000000000000000AF
:10213000000000000000000000000000000000009F
:10214000000000000000000000000000000000008F
:10215000000000000000000000000000000000007F
:10216000000000000000000000000000000000006F
:10217000000000000000000000000000000000005F
:10218000000000000000000000000000000000004F
:10219000000000000000000000000000000000003F
:1021A000000000000000000000000000000000002F
:1021B000000000000000000000000000000000001F
:1021C000000000000000000000000000000000000F
:1021D00000000000000000000000000000000000FF
:1021E00000000000000000000000000000000000EF
:1021F00000000000000000000000000000000000DF
:1022000000000000000000000000000000000000CE
:1022100000000000000000000000000000000000BE
:1022200000000000000000000000000000000000AE
:10223000000000000000000000000000000000009E
:10224000000000000000000000000000000000008E
:10225000000000000000000000000000000000007E
:10226000000000000000000000000000000000006E
:1022700069642000D9362000FD3620008D2D200015
:1022800069392000B528200069642000FF22482415
:1022900008B5084B08481A60084AE369121A084949
:1022A00098470848084AA369121A0021984700F085
:1022B0000DF8FEE7B4200D4040000020F80000209B
:1022C00050742000F8000020770E002073B500F055
:1022D0003FFC00F0F7FC00F055FC00F059FA01F06B
:1022E00031FB04F098F900F0E5FC00F0B3F80120B0
:1022F00004F0BEF802F0F4F800F016FC002000F044
:1023000031FB012000F02EFB4049002000F0F6FBDD
:1023100002F02EFA62B6042004F0AAF83C4804F059
:102320000CF93C4804F009F900F0D0F9002002F063
:10233000CBFA01F0F7F90021374802F05FF901F01C
:102340003DFF04F0C1F800F045FD00F061FD02F032
:1023500009FE0821684601F01BFB9DF806309DF838
:1023600007502E4C45EA0325BDF806302C48238043
:1023700001F048FB2B4E21782B4801F043FB61789C
:102380002A4801F03FFBF46A4AF6CD310220A0470B
:1023900029460320A0471A210120A04708226946A8
:1023A000736B0B209847224801F02CFB214B1868D7
:1023B00004F0C3F8204801F025FB204B186804F016
:1023C000BCF81F4801F01EFB1E4B186804F0B5F85E
:1023D00000211D4802F012F91C4B01219B6881204D
:1023E000984704F003F91A4804F0F6F800F0A2FB4D
:1023F000022004F03DF800F0A3FB02F089F810F091
:10240000FF0FF8D101F032FAF5E700BF29472000AD
:10241000F270200004712000780000206E0E002071
:10242000297120008C6F2000477120004D71200021
:1024300053712000607020005A71200088702000C5
:1024400061712000A470200098000020146F20000B
:10245000E070200008B500F0DDF80022014B1A7092
:1024600008BD00BFF40C0020024A13781843107016
:1024700000F0F4B8F40C0020034A137823EA0000BB
:10248000107000F0EBB800BFF40C002018B1012868
:1024900004D000207047034B18687047024B18782F
:1024A000704700BF20900D40F50C002010B5094A80
:1024B0000020137801331370074B197802F076F877
:1024C000BDE8104005490023054A0968054801F0A8
:1024D000ABBE00BFF50C0020700E002030010020C4
:1024E000AD24200010010020812808B52BD0B0F5C4
:1024F000807F3AD0802824D101F0EAFF1C4B1D4A8E
:1025000018701368032123F00803136052F8203C6D
:10251000002023F0080342F8203C52F81C3C23F032
:10252000080342F81C3C52F8183C43F0080342F8F8
:10253000183C042200F0D4FB032200210E4800F0D6
:1025400073FB012108E00D4B0D481A6831B142F0D0
:1025500008021A6001230360084608BD22F0080241
:102560001A600123C0F88030F6E7064B1960E8E7EF
:10257000700E002020940D408925200010940D40FD
:1025800000E100E03001002008B50F4804F04CF8ED
:10259000C8B108210C4804F040F80C4B196849B147
:1025A00000220B4B1A700B4B1B6843B90A4A0B48AD
:1025B00001F03AFEBDE80840094802F055B9074865
:1025C00001F03CFEF6E708BD0801002030010020C4
:1025D000F50C002020900D40AD24200010010020BB
:1025E000146F2000084A136823F00403136052F8A4
:1025F000203C43F0040342F8203C0022034B1A60C5
:102600000122034B1A70704720C40D4010C00D40CA
:10261000F60C00200D4A0E49136823F0C003136026
:1026200052F8203C43F0C00342F8203C0022094B02
:102630001A600B6823F010030B6051F8203C43F044
:10264000100341F8203C044B1A60704720A40D4051
:1026500020C40D4000A30D4040C00D4010F0020208
:1026600018BFFF22084B1A6010F0040218BFFF22A7
:10267000064B10F001001A6018BFFF22044B14BF74
:102680001A601860704700BF00A20D4000A10D4005
:1026900040C00D40044B1868C0F30720030904BF75
:1026A0001030C0B2704700BF1C300D40064B186898
:1026B000C00910F0060F03BF00F00700C0F10200D0
:1026C00040034FF40040704714300D402DE9F047AF
:1026D000482588B0FFF7DEFF164B07461C68AB683D
:1026E00098476B68804698470546FFF7DFFF064628
:1026F00000F082FA814600F08BFA824600F038FA48
:10270000B60A04F00103AD0AC4F34004CDE905A004
:102710000393CDF8109002940196009507F00F03F3
:10272000C7F307124146044801F06CF908B0BDE850
:10273000F08700BF1C300D406F7120002DE9F84379
:1027400000F07AF810490246D1E90045AC46A042B3
:1027500038BF05F1010C6346C1E900230B48D0E9FD
:102760000089B8EB040169EB05048E1844EB0C07F3
:10277000C0E9006701F016FE18B1BDE8F84301F0AA
:1027800095BDBDE8F88300BF00010020F8000020DF
:10279000E0210D4B0D4A5A600D4A82F823100022A9
:1027A00007219A6019600B490B6843F001030B6025
:1027B000094B1A60042243F80C2C012243F8082C20
:1027C0000F22DA62704700BF10E000E047E8010026
:1027D00000ED00E008200D400C000340034BD3E95E
:1027E0000023100A40EA0360704700BF0001002088
:1027F000054B18601C3B1A6842F001021A601A6807
:10280000D207FCD4704700BF2800034010B5064C27
:10281000236823F001032360FFF790FF236843F050
:102820000103236010BD00BF10E000E0014B1868F9
:10283000704700BF34010020064B18685A680833FF
:102840001B681B0443EA0223034A0343106843EA5C
:102850000060704740500D404C500D40014608B597
:10286000104A1368DB07FCD572B6FFF7E5FF0B1AB9
:10287000062BD8BFC11D0C4B0A0E1A60C1F30742CC
:1028800043F8042CC1F3072243F8082CCAB243F8DA
:102890000C2C62B64FF40032044B1960044B1A61E1
:1028A00008BD00BF50500D404C500D403401002079
:1028B00000E100E008B500F0C1FF0022064B1A60FD
:1028C0004FF40032054BC3F89021C3F89020BDE8C7
:1028D000084001F0C9BE00BF3401002000E100E063
:1028E0002C23154A70B503FB00234FF6BF72DC683A
:1028F0000546236C626413F050020DD00F4EA3699D
:10290000DB0600D570BD56F825301BB12068C0B27B
:102910009847F4E72368F2E713F4D06FF2D04FF44E
:1029200040732363FF236360E36AE262E362236B25
:1029300043F001032363E5E7246F20003801002002
:10294000064B1B681B075FBF054B186880F008002B
:10295000C0F3C00048BF0020704700BF18C000404F
:1029600018D0004001282DE9F74F064600F2B48048
:102970002C2545435A4F7C1994F92080B8F1000F5B
:10298000C0F2AA8094F92290B9F1000FC0F2A4809D
:10299000544800F0C5FF544A79591368E5680B4361
:1029A00013605368616894F921A00B4353609368E6
:1029B000A1685FFA89FB0B4393600023C5F8C83F09
:1029C00023690AEBC8021A6094F92330227D009330
:1029D0009DF8003058461946019300F08BF9019B91
:1029E00008221946584600F07BF901233F494FEA77
:1029F0000939009A59F8010003FA02F2024349F832
:102A000001204FEA083858F8010003FA0AF202439D
:102A100048F801205022AA63AA6B94F9240042F4DA
:102A2000D062AA6302226A634FF440722A63A269E9
:102A300000286A62E269AA624FF07002EA620D46FB
:102A400014DB94F925102A4A41EAC00414600203F9
:102A500054598B4023435351C9B20022C0B200F0F5
:102A60003FF9244A136843F4004313602C2303FB0B
:102A7000067393F92640002C1BDB93F927A05FFA1D
:102A800084F85FFA8AF901224946404600F032F99B
:102A900001232403625903FA0AF313436351082202
:102AA0004946404600F01CF9124A136843F480433B
:102AB00013602C2303FB0676F268136B43F00103CB
:102AC0001363012296F82830590903F01F0302FA14
:102AD00003F3094A42F8213003B0BDE8F08F00BF8C
:102AE000246F20004129200028200D4020940D4013
:102AF00004410D4030D0004000E100E001289CBFBF
:102B0000014B43F82010704738010020012808D8F5
:102B10002C22044B02FB0030C3689A699206FCD455
:102B200019607047246F20000022014B1A60704723
:102B300000500D400822014B1A60704700500D40B4
:102B4000A022024B1A6050221A60704700500D40BC
:102B5000014A024B9A6070470020200000ED00E01F
:102B6000024B1868C0F38150704700BF04200D402D
:102B700008B5FFF7F5FF024B53F8200008BD00BF72
:102B80007C6F200038B5164D164C2B68012223F0BF
:102B900040032B602368062123F0400323600320B9
:102BA00000F09EF82B68012223F080032B6023683D
:102BB000072123F080032360032000F091F80A4BE3
:102BC0000A4A0B491A600B4A134610680842FCD1A6
:102BD0001A685101FCD41A685201FCD538BD00BFF7
:102BE00020C40D4000C40D4000200D400101020032
:102BF0000000010104200D40034B04481B6803F052
:102C000007031841704700BF04200D400048E80149
:102C1000034B04481B68C3F302231841704700BFED
:102C200004200D400048E801024B02EBC10243F8CA
:102C30002200704740010020F8B507460E460024E8
:102C4000084D05EB411547FA04F3DB07E1B204D563
:102C500055F824300BB1304698470134082CF2D196
:102C6000F8BD00BF400100202DE9F8430746DFF81A
:102C7000408000F0E3FD0C4B3D03EE5855F8084052
:102C80004FEAC70924FA09F446EA04003946C0B2FB
:102C9000FFF7D2FFE4B2054BF6B204FA09F4EE50A6
:102CA00045F80840BDE8F88318940D401C940D4089
:102CB00018970D4080220021014803F085BB00BF1A
:102CC00040010020034B044A1A60044B803A1A600A
:102CD000704700BFC001002080400D40C4010020AB
:102CE000034B01EBC0011B6843F82120704700BF74
:102CF000C0010020034B01EBC0011B6843F82120F9
:102D0000704700BFC40100200E28F0B50BD1154D4F
:102D1000154F2C6844F002032B603D6825F03F06F8
:102D200046F001063E60114E336823F0FF03134363
:102D30000B4303430E4A336013681B06FCD50D4B4F
:102D40000D4A1B6812680E2803F0FC0343EA0223B5
:102D500008BF054A1BB204BF1560024A184608BFE7
:102D60001460F0BD34000144F486084008700D4042
:102D700000700D400C700D4010700D40024B186833
:102D8000B0FA80F04009704700B708404FF40042A5
:102D9000064B10B5064CC3F89021C3F8902020686C
:102DA00018B101F043FC0023236010BD00E100E0F6
:102DB000C8010020064A136843F0020313605368F9
:102DC00043F002035360936843F00203936070473B
:102DD00048200D4007B50C4800F0A2FDFFF7EAFFC0
:102DE0000A4B1A6842F002021A6000220192019A0C
:102DF0000F2A06DD1A6822F002021A6003B05DF89D
:102E000004FB019A0132F1E77D2D200054200D4092
:102E1000064A136823F002031360536823F0020389
:102E20005360936823F002039360704748200D407D
:102E30000B4B1A689207FCD41B685B065FBFED2240
:102E4000084B1A601A60084B1B6813B1EF22054B40
:102E50001A60064A0120137803F07F03137070474D
:102E60004C860840388808402C860840F90C002021
:102E7000044B186800F02200A0F12003584258418A
:102E8000704700BF4C860840024B186800F04000B5
:102E9000704700BF4C860840044B1A6818B142F0D6
:102EA00001021A60704722F00102FAE7008608402A
:102EB000204B1870002832D01F4A13681B03FCD522
:102EC0001E4B1A6842F002021A601A6842F00102B0
:102ED0001A601A685007FCD51A6822F001021A60BD
:102EE0001A685107FCD41A6842F002021A601A6884
:102EF00042F001021A601A685207FCD5104A1368A2
:102F000023F004031360D2F8A83123F00403C2F8BD
:102F1000A8314FF400520B4BC3F890207047084A79
:102F2000136843F0040313604FF40052054B1A6119
:102F3000704700BFF80C002004200D4004880840B2
:102F40008C86084000E100E0084B93F90020002A3D
:102F500009DBED21064A11601160E32111601A7846
:102F600062F07F021A700120704700BFF90C002048
:102F700038880840A0F10B01CBB20F2B10B50446E6
:102F800013D80B4B1B6813F03F0302D0FFF750FF21
:102F9000012301EB8101074A0B3111600BB1FFF7EF
:102FA000D3FF054B60B21C7010BD4FF0FF30FBE744
:102FB000488608403C860840F600002010B50C46C4
:102FC000002900F08680102800F28580DFE800F0FC
:102FD00009101B22243B44575C727683837B7D540B
:102FE0007F003E4B1B68003318BF0123236024E0A1
:102FF00005223B4B1B6803F07F030B3B93FBF2F373
:103000000B33DBB2F2E7374B1A68043B1B6843EA29
:103010000223EBE7344BF7E700230B60334B344AD2
:103020001B6803F001030B601268900644BF43F075
:1030300002030B602F4B1B780BB900200BE00B68D1
:1030400043F00403D2E700202B4B08601B78002BD1
:10305000F3D001230B6010BD284B29491A680023C7
:10306000D2B201EBC3000079904202D851F833305C
:10307000BCE701330E2BF4D16FF01703B6E7214BF9
:103080001B685BB2493BB1E71F4B1B6899060FD128
:10309000FFF75AFF01231D490A68D207FCD51C4AD5
:1030A0001168493949B20BB1FFF7C2FE2160C4E78C
:1030B0000023F0E7174B93F9003097E7164B1B7886
:1030C00003F07F0392E70B2390E71A238EE7072391
:1030D0008CE70220BFE70120BDE700BF2C86084037
:1030E0003C860840CC850840D485084000860840CE
:1030F00024860840F80C0020F70000204086084095
:10310000C46F2000588608404886084064860840FE
:1031100060860840FA0C0020F70C002008B50B4B25
:103120001B6899060FD1FFF70FFF012308490A68B2
:10313000D207FCD5074A1168C1F300110BB1FFF7A4
:1031400077FE084608BD0023F0E700BF4886084028
:10315000648608404C86084008B507285BD8DFE83D
:1031600000F0040F1A21253B4155012903D1FFF737
:10317000EBFE002035E000294FD1FFF759FEF8E7BC
:10318000A1F10B030F2B48D8C8B2FFF7F3FE0130B3
:10319000EFD1032025E089B2214BCAB2090A1A6097
:1031A0005960E6E789B2CAB21E4BF7E731F0070370
:1031B00033D101F00100FFF76FFE1B4B11F0020F3E
:1031C0001A68C1F3800014BF42F0200222F02002EE
:1031D0001A60FFF76DFECCE731F001001DD1134BF3
:1031E000197008BD01F118031F2B16D80D23104AC2
:1031F00052F83300814205DC02EBC3031A790D4B10
:103200001A60B6E713F1FF33F2D2B2E7C9B20A4B44
:1032100049311960ADE70120E3E70220E1E700BF93
:10322000C8850840D085084024860840F700002063
:10323000C46F2000408608405886084038B50546CF
:103240000C46134A13689B07FCD4124B93F90030C9
:10325000002B01DBFFF778FEEE220F4B691E1A6090
:103260001A60A21C43F8102C2144022000F074FACA
:103270000A49013C41EA0411022000F07FFA0220D1
:1032800000F086FA022000F09BFA002038BD00BF53
:103290004C860840F90C00203888084002C001C064
:1032A000F8B5224B93F90030002B18DBFFF7C4FA76
:1032B0000446FFF749FEC4F1FF2404F57F04F63409
:1032C000FFF7BAFAC442FBD40126194B1B7843B965
:1032D000184C2368990609D502210846F8BD002636
:1032E000F3E7FFF71BFF0028F2D1F5E7E9230427F6
:1032F000114D2B6023689A0703D4013F17F0FF0795
:103300000BD123689B070CD4EE2301212B602B608B
:10331000002EE2D0FFF78CFDDFE70620FFF768FA0A
:10332000E8E7216811F00201FBD1F1E7F90C002078
:10333000F70000204C860840388808400B280DD143
:10334000082A0DD161B1074B074A083111F8010D68
:1033500043F8040B9342F9D10020704701207047D5
:1033600002207047A8850840C885084070B5304ED7
:10337000336813F0400358D02E4D2C68230605D532
:10338000ED2200202C4B1A601A6070BDE4B2042CB0
:10339000F6D9023C8C42F3DCE4B2032C1ED12B683C
:1033A00003702B6843702B6883702968234B49395D
:1033B00049B219702B68224D18062B70E0D589B2DE
:1033C000042001F0A5FD2978032001F07F0101F020
:1033D0009FFD1C4B1B78CBB12046D6E70119013964
:1033E000032000F0C1F9184B611E43EA01110320CC
:1033F00000F0C4F9032000F0CBF9032000F0E0F95D
:10340000032000F0E9F90028FAD1CEE733685A0624
:10341000E2D533681B0603D50C4801F007F9DBE75A
:10342000ED22054B1A601A60D6E71846ADE700BFDB
:103430004C8608402888084038880840FA0C00204C
:10344000F70C0020F80C002002C0010C50000020F6
:10345000F8B5294F3D7815F001054BD10124F8222C
:10346000264B7F261C605C609C60A3F59323A3F52C
:1034700014731A600922C3F89021152270331A6060
:103480000B2203F59B2303F59E731A604022A3F5DC
:103490009B23A3F5F0731A601A6842F020021A60A9
:1034A000D52243F81C5CDE62DA61154B1878FFF711
:1034B00061FD4FF48042134B02201E60124B1A61D3
:1034C00000F072F91149022000F04EF9032000F0DB
:1034D0006BF90E49032000F03FF90D4B1878FFF708
:1034E000E7FC0C48294601F089F820463B78234345
:1034F0003B70F8BD0020FCE7F90C0020A8200D402F
:10350000F60000209486084000E100E0288808408A
:10351000F80C00205000002038B50388044653B34F
:1035200040F20342934233D11B4B18781A4638BB02
:10353000822923D1137873B901F09CFC01F028FC97
:103540008021FFF713FF002805DD80B201F0E0FBCA
:10355000124B1B699847124B1A7852060BD5002262
:103560001A70104B1D68FFF763FCFFF771FFAB0685
:1035700001D0FFF7E9FC40F20343238001200AE079
:103580001B78002BFAD0064B1B785806F6D5CFE7F0
:1035900000230380032038BDF80C0020A470200015
:1035A000F90C0020488608400B282DE9F0470C460E
:1035B0000FD1082A79D1002977D03D4B3D4A4C1EC6
:1035C00053F80419934204F8011FF9D10020BDE813
:1035D000F0870C2867D1042A67D1002965D0364BC3
:1035E00036491A68DFF8E48022F007021A600A6898
:1035F000334F42F008020A60D8F800003A681D68AC
:10360000DFF8CCE025F07005DFF8C8C01D60DEF8FB
:103610000050DCF80060C0B2120240EA066092B2CC
:1036200002434FEA0549274809F47F09D0F800A072
:1036300042EA09061A685FFA8AF522F0070242F0A8
:1036400001021A600A6842F008020A60D8F80020F5
:103650003F68196821F0700141F010011960DEF82F
:103660000010DCF800C0D3B23A0243EA0C6392B215
:1036700013430A04016802F47F0243EA02085FFA76
:1036800081F9FFF7D9F8B6EB080165EB0905ED0301
:1036900007460D4AC803002345EA514102F06AFC7F
:1036A000381A206092E7012091E702208FE700BFDF
:1036B000C4850840A4850840108808400488084054
:1036C000188808401C8808400048E8011488084011
:1036D000248808402088084008B5054B1B7813B99A
:1036E000044800F0A3FF0022034B1A6008BD00BF8E
:1036F000F80C00205000002034880840064B074892
:103700001A68042A1FBF06490A7842F040020A706C
:1037100000221A6000F08ABF2C8808405000002068
:10372000F90C002008B5094B40220021184602F090
:103730004BFE0121064A074B116050604FF4804256
:103740005A604FF400425A6008BD00BF00000020DC
:1037500004F00F4000E100E003289EBF014B000190
:10376000195070470000002003289EBF024B03EB56
:1037700000135960704700BF0000002003289EBF5F
:10378000024B03EB00139960704700BF000000205C
:10379000032805D80123034A834011680B431360B3
:1037A000704700BF28F00F40032805D80123034AC3
:1037B000834011680B431360704700BF20F00F4037
:1037C000032805D80123034A834011680B43136083
:1037D000704700BF14F00F4003289FBF044B03EB5A
:1037E0000013986800F0070088BF0020704700BFF2
:1037F000000000204FF0FF32014B1A60704700BFFD
:1038000004F50F400122014B1A6070474CF00F4045
:10381000084B19461A68D002FCD4074B1A6822F4E8
:1038200080321A600A68D203FCD41A6842F400326B
:103830001A60704704200D4000200D4010B5094C5F
:10384000226890070DD0084B1A4619684901FCD42C
:1038500013685B01FCD5FEF7D9FFFFF7D9FF002302
:10386000236010BD58200D4004200D4038B5264B74
:103870001C6814F03F0414D1244D55F8043B23B1C7
:10388000984770B10134052CF7D1214D2B7843B105
:10389000FEF7CCFF0446FEF7CFFF201A092800D917
:1038A0000CB930BF27E01B4B1A6822F400321A60B3
:1038B000194A11461068C002FCD41A6842F48032DA
:1038C0001A600B68DB03FCD5FEF7B6FF201A092847
:1038D00003D8BDE83840FFF79BBF63280F4C0BD9D6
:1038E0002B78022B08D1236000F056FE30B1FFF791
:1038F0008FFF0023236038BD0123F4E7FEF796FF16
:103900000028F4D0CDE700BF48860840CC01002055
:10391000FB0C002000200D4004200D4058200D40DD
:10392000074A10B50023144652F8041B814202D006
:1039300011B944F8230010BD0133052BF4D1FAE787
:10394000CC0100200022054B05491A600B6943F0A9
:1039500004030B61034B1A70704700BF58200D40E1
:1039600000ED00E0FB0C00204FF48032064B10B558
:10397000064CC3F89021C3F89020206818B100F0DD
:1039800055FE0023236010BD00E100E0E0010020AF
:1039900070B5184B1A78431E1AB9174A1278122AB2
:1039A0000AD001F52011154A2731914216D011F89D
:1039B000010903F8010FF8E7114A12784B2AF0D1F8
:1039C0004C0804F520120D4D2732AA4207D10023DE
:1039D00001F5201120442731A34205DB70BD12F808
:1039E000016903F8016FF0E7CA1A1278013300F891
:1039F000012BF1E72B0028002A00280027002800CF
:103A0000290028000FB407B504AA52F8041B044883
:103A1000019200F021F803B05DF804EB04B07047A8
:103A20006000002070B505460C460A4E102C07D8E1
:103A300074B12B68224668680649BDE87040184793
:103A40002B68102231466868984710B9103CEDE7A2
:103A5000204670BD5A7220002DE9F04F8046154671
:103A600000268FB00791079B1B78002B00F0528334
:103A7000079B1A781C460133002A00F03A83252A56
:103A8000F7D1079B9C4205D036E323783E44002BB8
:103A900000F040836378621C002B00F03B8300241D
:103AA000104610F8011B13462B2916D00AD82029DE
:103AB00016D0232917D0A1F13107082F3FD84FF096
:103AC000000A18E02D2904D03029F4D144F0100464
:103AD00001E044F001040246E2E744F00604FAE79C
:103AE00044F00204F7E744F00804F4E70A2303FB78
:103AF0000A1AAAF1300A134612F8011BA1F130008C
:103B00000928F3D91A782E2A35D159785A1CA1F1EF
:103B10003000092828D8002711781346A1F1300079
:103B2000092802F101021AD91A786C2A40F0908013
:103B30005A786C2A22D144F08004023321E02A29E9
:103B40000AD1D5F800A00346BAF1000F05F104052B
:103B5000B8BF44F00104D5E74FF0000AD2E70A23CA
:103B600003FB0717303FD7E72A2903D12F68023319
:103B70000435D9E713464FF0FF37D5E7013344F05A
:103B800060041A78642A00F0908000F28380462A4C
:103B900000F0AD806FD8252A00F0BE8064D8002ADE
:103BA00000F0B8820133079304F4E063B3F5806F4B
:103BB00000F0578200F2B380B3F5807F00F0EC8014
:103BC000B3F5407F7FF44FAF8F4B14F4804F8F4A93
:103BD00008BF1A460DF1330300211F46286804353B
:103BE00050EA010C40F07282FF1A04BF302203F841
:103BF000012C4FF0780208BF03F1FF3303F8012CCA
:103C00004FF0300208BF012703F8022C23220337AC
:103C1000BA458CBFAAEB070A4FF0000A14F0010462
:103C2000A3F1030903F8032C06D151464046FFF7E0
:103C3000F9FE002840F06C82D8F800303A46494638
:103C4000D8F804009847002840F062823E4433E2EE
:103C5000682A96D15A78682A02D144F020046CE789
:103C6000013344F040048CE7412A4CD0452A99D1D5
:103C700044F4424496E7582A33D004D8472A91D1D5
:103C800044F4A1348EE7612A3AD0632A8AD144F4FD
:103C9000A06487E76E2A3CD00AD8662A24D029D3AC
:103CA000672A2AD0692A7FF47DAF44F4245479E747
:103CB000732A2BD007D86F2A10D0702A7FF472AFE6
:103CC00044F440746EE7752A05D0782A7FF46AAF11
:103CD00044F4C85466E744F4106463E744F4885439
:103CE00060E744F4B2445DE744F400745AE744F4F6
:103CF000844457E744F4024454E744F4813451E7E0
:103D000044F4C1344EE744F4E1344BE744F48064B6
:103D100048E744F4E06445E744F4C06442E7B3F59F
:103D2000C06F2DD0B3F5E06F00F0DF81B3F5A06F69
:103D30007FF499AEBAF1010F38BF4FF0010A2B683A
:103D400014F0010405F104058DF820300AF1FF3765
:103D500007D139464046FFF765FE002840F0D8817C
:103D60003E44D8F80030012208A9D8F8040098474A
:103D7000002840F0CD81002C00F0A1813946E0E020
:103D8000D8F8003001222249D8F8040098470028CA
:103D900040F0BE81013666E6002FACBF24F010046F
:103DA000012714F4005204F0E003069232D0402BB5
:103DB00023D008D823B3202B0FD000220023CDE935
:103DC0000023002317E0602B1AD0802BF5D1073594
:103DD00025F00705F5E8022303E095F90020D31745
:103DE0000435002A73F10001E9DA524263EB430320
:103DF000CDE90023012303931DE0B5F90020EEE790
:103E00002A680435D317ECE78B7220007A72200001
:103E1000AB722000402B00F0AF8000F29980002BA5
:103E200000F0AC80202B00F0A080069B00220393C2
:103E30000023CDE9002304F4C053B3F5805F00F004
:103E4000D480B3F5C05F00F0D580B3F5006F00F00B
:103E5000B68000230DF1360B0493049B41F2080257
:103E60009F4288BFFF1A41F6080304EA030198BF86
:103E7000002791421A4602D1002F08BF0127049B58
:103E8000914203EB070040F0CF80DDE900231343AC
:103E900000F0CA80A14914F4804FA14B4FF00209F1
:103EA00018BF0B46069A72B1039A002A40F0C080F0
:103EB00004F00602022A00F0BF80062A994A04BFD5
:103EC0004FF00109134609EB000292458CBFAAEBA3
:103ED000020A4FF0000A14F00102009204D1E10638
:103EE00040F1AE8057449246B9F1000F09D0D8F89E
:103EF00000404A461946D8F80400A047002840F080
:103F000007813C46049B1E44102CD8E9003000F287
:103F1000A1802CB1224684499847002840F0F880BF
:103F2000D8F80030049A5946D8F804004E4498470F
:103F3000002840F0ED80009B3E44002B00F0BF8045
:103F400051464046FFF76EFD002800F0B880DFE0E4
:103F5000602B13D0802B7FF468AF073525F0070561
:103F6000F5E80223CDE9002304E02A780023CDE917
:103F700000230435069B3EE72A88F7E72B680022DA
:103F800019460435CDE90012F4E7DDE904010A22FF
:103F9000002301F0EFFFDDE9040130320BF8012DC1
:103FA00000230A2201F0E6FFCDE90401DDE9042344
:103FB0001343EAD10DF13603A3EB0B034CE7DDE924
:103FC00000230DF1360BCDE90423EFE702F00701E2
:103FD00030310BF8011DD10841EA4371D8080A4677
:103FE000034652EA0301F1D1E4E7DDE900230DF1D4
:103FF000360BF6E74D4B14F4804F0DF1360B4C4960
:1040000008BF1946DDE9002352EA0300D2D002F0CE
:104010000F00085C4FEA131C0BF8010D100940EA71
:10402000037002466346EFE74FF000094B4639E75D
:104030004FF001093F4B46E74FF001093E4B42E785
:10404000514640460393FFF7EDFC039B00283FF4E5
:104050004BAF5DE0102234499847002858D1103CFE
:1040600052E7D5F800B00435BBF1000F29D05B460C
:10407000994699F800200133002AF9D1A9EB0B09E0
:10408000002F02DBB94528BFB946CA458CBFAAEB51
:10409000090A4FF0000A14F0010404D151464046C9
:1040A000FFF7C0FCA0BBD8F800304A465946D8F804
:1040B0000400984760BB4E44002C7FF441AF564447
:1040C000D1E4DFF878B04FF00609D9E700F00F0C23
:1040D00012F80CC04FEA111E03F801CD4FEA101C74
:1040E0004CEA017C604671467AE52B6804351E6017
:1040F000B9E4079B9C420DD0079B0799E71A3A4603
:10410000D8F80030D8F80400984700283FF4BDAC38
:104110004FF0FF3630460FB0BDE8F08F9C722000A4
:104120009F722000A27220006A7220008B72200011
:104130007A7220007D7320005F712000A47220003D
:10414000F8B5038806461546CBB14A2B2BD18829F2
:104150001FD1174802F079FA0446C4B1231D9D42CD
:104160001FD12146124802F07AFA124D62692F6877
:104170002A60A2690AB1E06990472F6007E00C4805
:1041800002F063FA044634B901220B4B1A704A2339
:10419000338001200AE0A168201D02F028FA24687B
:1041A000F1E72468D9E7002303800320F8BD00BFAE
:1041B000E401002070030020FC0C002010B5002456
:1041C000054B06481C7002F03DFA2146BDE8104040
:1041D000034800F013BA00BFFC0C0020E4010020EB
:1041E0006800002070B50446E3610B4B049D1B780A
:1041F000C4E905526BB1094D094B2E68201D2B6097
:1042000002F0F5F92E602146BDE87040054802F045
:1042100039BAA160F7E700BFFC0C00207003002052
:1042200068000020E401002013B5034C24680094CA
:10423000FFF7D8FF02B010BD7003002010B5084B87
:1042400004461B7843B1043000F0B4F82146BDE8C1
:104250001040044802F003BAC0E90333F6E700BF98
:10426000FC0C0020E401002010B50E4C236813B9AB
:104270000D4A136010BDFEF7B1FA2168D1E90023A1
:1042800013448A681B1A1AB91844074B1860F1E7DF
:10429000D2E900142144091A8B4228BF0B469268C8
:1042A000F1E700BFEC010020E8010020014800F028
:1042B000BDB900BF780000202DE9F843038805460A
:1042C00053B1592B47D1872920D1002024490B68AD
:1042D00063B918B10B6001E0214A13605923012032
:1042E0002B80BDE8F88301203346F1E7D3E902646F
:1042F0009442F8D000B10B6099680029EED0C868EC
:1043000090420ABF89680B469960F5E78229E5D19A
:10431000134F4FF00009B84600263C68002CDDD052
:10432000204602F081F998B122468821E06800F029
:104330003DF958B9E060A3682EB1B360C4F80890A5
:10434000FFF792FFE8E7C8F80030F7E7FFF7AEFFA6
:104350002646A468E2E7002303800320C1E700BFEC
:10436000EC01002010B50446FFF7A0FFE3680B4AFC
:104370000BB1136833B90A4B1B68E3601368146010
:10438000A36004E0A34206D1054A1268DA60BDE8E2
:104390001040FFF769BF9B68ECE700BFEC0100200D
:1043A00070030020024B1868003018BF01207047CE
:1043B000EC01002010B50B4A04461368834208D173
:1043C00083681360FFF750FF0023C4E9023310BD78
:1043D0001346002BF8D09A68A242F9D1A2689A60DD
:1043E000F0E700BFEC01002038B5836804460D46B5
:1043F0009BB10A4804600220A07304F10C009847A6
:104400000238012801D9832D05D121462046BDE877
:10441000384000F005B80123A37338BD70030020B5
:104420002DE9F8431C4F04463D6889462B46A342BC
:1044300004D00BB9BDE8F8831B68F8E7002CF9D06D
:10444000164EA37BD6F8008063B10023A3738DB909
:10445000A3683BB14C4505D034602A46832104F162
:104460000C0098473B68A3420ED123683B60C6F816
:104470000080DFE7A54204D022468721284602F0CB
:10448000C4F82D68E3E71346002BF0D01A68A24267
:10449000F9D122681A60EAE7740300207003002053
:1044A000002238B50125084B1A70084B1C6804B966
:1044B00038BDE37B2BB1E581002282212046FFF746
:1044C00093FF2468F3E700BF000D00207403002071
:1044D000024B1878421C1A70704700BFFE0C002077
:1044E0008A22064B1A700023054A1370054A13707E
:1044F000054A1360054A1360704700BFFE0C002098
:10450000FD0C0020FF0C002074030020700300202D
:104510002DE9F0411B4D2B780BB1FFF7C1FF1A4C71
:1045200022789AB10C21194E194F3378013A594328
:104530000133781803F01F0317F801803370D0E9B6
:104540000170227090B9134B1E6826B92B78207821
:104550001844BDE8F0812B780BB1FFF7A1FF30467E
:104560003A46414602F051F83668EEE7B8F1810F5D
:1045700008BF01233A4608BF8373414602F045F85D
:10458000E4E700BF000D0020FF0C0020FD0C002020
:10459000F001002074030020024A034B10781B78BE
:1045A00018447047FF0C0020000D0020F0B50B4EA2
:1045B0003378202B0FD00C25094C0A4F24781C444B
:1045C00004F01F046C433D19C5E9012000200133AC
:1045D00039553370F0BD0120FCE700BFFF0C00200F
:1045E000FD0C0020F001002038B5034C256802F0D6
:1045F0000CF8256038BD00BF7003002030B40A4CB1
:104600000A4625682B4683420CD04BB950B1012194
:104610000560817320608381812130BCFFF7E4BF96
:104620001B68F0E730BC70477403002038B1837B0F
:10463000013B012B9FBF0123014AC37313707047D5
:10464000000D0020024610B5064853600468029B26
:1046500011609360026014B90846FEF7FFF800206D
:1046600010BD00BF7803002010B5084C206858B179
:1046700000232360D0E901319847236823B1BDE8C6
:1046800010401868FEF7EAB810BD00BF780300209C
:1046900070B505880446672D09D0792D2FD0002DDF
:1046A00033D1FFF715FF1B4B18701B4B1D601B4EC2
:1046B000194D08E00A282B680ED07E2B03DC5A1C0B
:1046C0002A60174AD054304602F05DF8431CF1D1FD
:1046D0006723238001201BE05A1C2A600025104A12
:1046E0002846D5540B4B1978FFF760FF0D4B2A462F
:1046F00085211868FFF75AFF18B97923E9E785295A
:10470000E8D10022044B1A60D1E700230380032084
:1047100070BD00BF750E00207C03002080030020C8
:10472000010D0020700300200D2810B5014616D0A1
:104730000C4C237853B90C4802F012F808B9012345
:1047400023700A48FFF772FF012010BD0A28F8D134
:10475000054802F005F80028F3D00023F0E7002018
:10476000F3E700BF810D00208003002088000020B7
:1047700008B505490548802201F0EBFFBDE8084077
:1047800000210348FFF73ABF820D0020800300207C
:10479000880000202DE9F04104880646772C20D0BF
:1047A0007E2C3DD0002C4ED1FFF792FE284D294B98
:1047B000294FDFF8B08018702C602B6857F8232041
:1047C0002AB9264A13707723338001203EE008F887
:1047D000034093680021802098472B6801332B60A9
:1047E000EBE700231E4A1360194A1360184B1B4A5B
:1047F0001B6812789A4204DC194B1B68002BF0D11D
:10480000E1E7184AD256002A19DA134A002052F872
:104810002320104B1978FFF7C9FE28B97E23D3E770
:104820000C4B1B788B42D0D1094B0E491A688B5C1C
:1048300003F07F038B540A4A136801331360044A60
:1048400013680133D1E7002303800320BDE8F08122
:104850008C030020760E002040000020020E002075
:1048600088030020710E002010B40A4B0A4A197800
:1048700000238B4203DA52F8044BA04208D10749C7
:104880000748CA5C62F07F02CA5410BCFFF7CEBE74
:104890000133EEE7020E002040000020710E0020E0
:1048A00098000020064A136843F004031360054B88
:1048B000186804331B6840EA032080B2704700BFC9
:1048C00000700D4014700D4010B5174A136823F0A6
:1048D0000C0313600122154B1A601A68012AFCD1DF
:1048E0000822134B13491A60E32203F505731A607B
:1048F0001A460B68DB07FCD50F4C102100232068FB
:10490000013900F0010043EA00034FEA43039BB280
:10491000F5D1002BF1D00949180A03F0FE03086015
:104920000B60EF23136010BD00700D40A8200D40F8
:1049300024860840648608409C86084014700D4018
:1049400010B50478437843EA042303FA01F1044BD9
:10495000985CC2F1080200EA21201041C0B210BDEB
:10496000DE722000F8B506460A480D46174601F0EB
:104970006CFE044630B93A4629463046BDE8F84058
:1049800002F07BB8A3680BB128469847204601F097
:1049900095FEEEE79003002038B500F0F3F80546E9
:1049A000094801F052FE044628B95DB12846BDE829
:1049B000384002F05DB8636803B19847204601F0C3
:1049C0007DFEF0E738BD00BF9003002010B504461F
:1049D00000F0E6F838B100F0B7F9034B0348214680
:1049E0009B689847012010BDD070200065492000C9
:1049F00070B50B4C0023616E0A4A04F13800FFF7D2
:104A000013FCFFF74FFF616E0023B0FBF1F5064A80
:104A100005FB110104F11800BDE87040FFF704BC6C
:104A2000940300202D4A2000454A2000044B5A6E72
:104A3000196E5200914294BF59665A66FFF7D8BF6B
:104A40009403002010B500F015FA00F0A1F900233E
:104A50000380044600F0C6F82288930008B1017B69
:104A600051B9981C80B200F053F9238873B1BDE8A6
:104A70001040074800F078B8818823445980C188E5
:104A800001329980228001F019FEE5E710BD00BFD8
:104A9000940300209DF80030012B04D1024B9A6D45
:104AA0005A66FFF7A5BF704794030020F8B50F467C
:104AB00016461D46064C0146064A204600F042F8BE
:104AC000C4E9167625660448BDE8F84000F084B8CD
:104AD000940300206C702000954A200070B50546B4
:104AE0000C46164600F010F82E612046BDE87040D6
:104AF000014901F0C7BF00BFEC722000014801F07E
:104B0000A1BD00BF0004002081800146014801F0E2
:104B1000B9BD00BF000400200146014801F09FBD5F
:104B20000004002010B50446054801F08EFD00B9D0
:104B300010BD8388A342FBD001F0C0FDF7E700BFA2
:104B40000004002070B505460C461646044AFFF7DF
:104B5000C5FF6E612046BDE87040024901F092BF7A
:104B600074702000EE72200010B5044604491A202B
:104B700000F0DCF92046BDE8104001F077BF00BF2F
:104B80006E0E0020054B10B51B689847044618B1FF
:104B90008188012000F0BCF9204610BD547020002F
:104BA00038B5064B05465B6898470446A98801203E
:104BB00000F0AEF9201C18BF012038BD5470200051
:104BC000014B9B68184700BF54702000014801F05A
:104BD00039BD00BF04040020014B1860704700BFBE
:104BE00008040020014801F030BD00BF040400208B
:104BF0002DE9F04106460C480C46174601F025FD0C
:104C000008B9BDE8F0818388A34209D18568002DE9
:104C1000F7D03B4622463146AC46BDE8F0416047FE
:104C200001F04CFDECE700BF0404002008B5044887
:104C300001F047FDBDE80840024801F042BD00BF59
:104C4000B4000020A800002038B50E4801F049FD4E
:104C5000054650B10C4801F044FD0446286030B9C7
:104C60002946084801F051FD2546284638BD00F088
:104C700097F804F1B601A4F8800004F1820000F076
:104C80001FF9F2E7A8000020B400002010B501468B
:104C90000446074801F04FFD48B12168054801F07E
:104CA00034FD2146BDE81040014801F02EBD10BD85
:104CB000A8000020B400002010B5014604460948B1
:104CC00001F039FD68B12468B4F88010204600F086
:104CD000E1F804F1B60104F18200BDE8104000F0F3
:104CE00003B910BDA800002010B507490B88834206
:104CF00008DB064C80B222880244181A0880012082
:104D0000228010BD0020FCE7EC0C0020EE0C0020FF
:104D1000014B1880704700BFEC0C00200048704722
:104D20002C040020014B1888704700BFEC0C0020B9
:104D3000034A044B10781B781844C0B2704700BF78
:104D4000130E0020EE0C00202DE9F0410C4F3A88A4
:104D500072B100240B4B0C4EB3F800800B4B1D7846
:104D6000354421B2414504F1010403DB00233B80BB
:104D7000BDE8F081FFF7DCFF3044435C6B54F0E7A3
:104D8000EE0C0020EC0C00202C040020130E002060
:104D900008B5FFF7CDFF014B184408BD2C040020D7
:104DA000F8B50C4B05461E780B4B1F88F419802C68
:104DB0000DDC3246094901F091FAFFF7E9FF35446D
:104DC00001463A46284601F089FA2046F8BD0024FB
:104DD000FBE700BF130E0020EC0C00202C04002089
:104DE00008B5FFF7A5FF024B1B88184480B208BD29
:104DF000EC0C002010B50146FFF7F2FF4318802BA2
:104E000012DC0138094B00B203444A1C002805DAC1
:104E1000074B187808441870012010BD13F8014999
:104E200001389C5400B2F1E70020F6E72C04002082
:104E3000130E002038B50C4D0C4C342200210C48C8
:104E400001F0C2FA2946204601F077FE2946A01C4F
:104E500001F073FE2946201D01F06FFE2946A01DBA
:104E6000BDE8384001F069BEF0702000320E00202D
:104E70003A0E00200023044A1380044A1380044A97
:104E80001370FFF7D7BF00BFEE0C0020EC0C002022
:104E9000130E002038B50C460546FFF7EBFF802CBB
:104EA00028BF802429462246034801F017FA034B05
:104EB00020461C8038BD00BF2C040020EC0C0020D4
:104EC00010B5074B03F1340253F8044B934240F8FA
:104ED000044BF9D1034A13680B6053684B6010BD53
:104EE0003A0E0020320E002010B5074B00F13402BC
:104EF00050F8044B904243F8044BF9D10B68034A35
:104F000013604B68536010BD3A0E0020320E002033
:104F1000024B23F810100120704700BF3A0E00200A
:104F2000014B33F8100070473A0E002008B5044BCF
:104F30001A3803EB400001F000FE012008BD00BF5D
:104F4000320E0020024B1A3803EB4000704700BFBE
:104F5000320E00200149024801F0F2BDF07020003D
:104F6000340E0020084B10B51B689847074B5B6850
:104F70009847074B5B689847064B5B689847BDE8C6
:104F80001040054B5B6818478C6F2000A470200010
:104F9000D07020008870200060702000F8B5FDF708
:104FA0001DFC114E0546002437461A20FFF7CAFFA4
:104FB000314601F0C5FD80B10A20FFF7B1FF0C2397
:104FC00003FB0474237A83420CD16068281AB0F57D
:104FD000206F8CBF00200120F8BD0134102C06F199
:104FE0000C06E2D10020F7E7AC04002070B5184DA4
:104FF00000242E461A20FFF7A5FF294601F0A0FD48
:10500000013418B9102C05F10C05F3D10C23621EE4
:1050100003FB0464A4F10C057AB90A20FFF780FFB2
:105020003072FDF7DBFB70601A20FFF78BFFBDE8E5
:1050300070400146064801F080BD2B4654F8180D1B
:10504000013A616803C3A0682C461860E2E700BF1C
:10505000AC04002030B591B0054600F04DFA4FF693
:10506000FF73984204D14FF0FF34204611B030BD99
:1050700040220021684601F0A7F9404B1A782AB96E
:1050800001221A70FFF70EFC3D4B18701420FFF739
:1050900047FF8DF810001320FFF742FF8DF8120034
:1050A000FFF758FF0446002848D000238DF813303E
:1050B0008DF81530002301248DF814308DF8184038
:1050C0004DB10A20FFF72CFF00283FD00A20FFF740
:1050D00027FF8DF81A0002248DF8194000F00CFA11
:1050E000ADF81C00FFF736FF00283CD04FF6FF73E9
:1050F0008DF81740ADF8003000F0FEF9ADF81E0055
:105100001A20FFF71FFF014602A801F016FDFFF766
:105110003FFE0E90FFF706FE0F90684601F017FE67
:105120000446002DA1D0FFF765FE00289BD0FFF7B5
:10513000F5FD0146684601F052FE96E70B20FFF7A9
:10514000EFFE8DF815408DF81300B3E70C4B1A787D
:1051500002B91C7019780A204A1C1A708DF81A10AE
:10516000FFF7D6FEB7E71B20FFF7ECFE01466846C7
:1051700001F0E3FC8DF81740BEE700BF140E0020DD
:10518000150E0020014BDB68184700BFD0702000CF
:10519000014B5B69184700BFA4702000014B9B695D
:1051A000184700BFA4702000024BD86900B1004727
:1051B000704700BFA470200070B590F829500F4BC5
:1051C000042D28BF04250124DB6906469847AC401E
:1051D000651E041E08BF01246C4305D0FFF762FB67
:1051E000B0FBF4F303FB14043346214606F1080038
:1051F000034ABDE87040FFF717B800BFA470200055
:10520000715320002DE9F04107461B208846FFF727
:1052100099FE484B05461A78474C22B901221A706C
:10522000FFF740FB208023880BB9012323802188CE
:105230000A204B1C2380FFF76BFE404801F005FA63
:105240000446002845D13E4801F04BFA04460028A8
:1052500065D02946201D01F070FC002304F12C00CC
:10526000C4E90B30238501F0EDF92146334801F004
:1052700009FA206B01F01BFA072850DC314801F0D5
:1052800030FA054600283ED02F4801F02AFAA860DF
:10529000A8B3FFF7D9FC686068B30920AE68FFF7D0
:1052A0003FFE00BB08233372C6E900780D20FFF7EC
:1052B00037FE01282946206B1AD101F0F0F9206B46
:1052C00001F0C3F9854232D12046BDE8F041FFF735
:1052D00073BF2946201D01F033FC0028C9D12046A8
:1052E00001F0ECF9ACE70920FFF71AFE3072DBE7BA
:1052F00001F0C8F9E3E7A968134801F006FA294666
:10530000104801F002FA206B01F0D1F938B92146BA
:105310000A4801F0A4F92146094801F0F6F941468E
:105320003846BDE8F0410123042201F0D2BDBDE8BA
:10533000F08100BF160E0020F00C0020CC050020EC
:10534000CC000020D8000020C000002008B505488F
:1053500001F0B7F9044801F0B4F9BDE8084003488A
:1053600001F0AFB9D8000020C0000020CC00002020
:1053700013B5044668B1006B01F067F9024640B10D
:105380002146054B0548DB68019302B0BDE810409B
:10539000184702B010BD00BFA47020001D542000AB
:1053A0002DE9F0470D4614468B688046D3E9006727
:1053B000106B92F8289001F052F96868FFF766FCCC
:1053C000A968124801F0A1F92946114801F09DF998
:1053D000206B01F03AF960B1002320462385FFF7E6
:1053E000EBFE4B46424639463046BDE8F04701F0F9
:1053F00070BD04F10800FEF721FF2146054801F0C9
:105400002EF92146044801F080F9EAE7C0000020A7
:10541000D8000020CC050020CC0000202DE9F04170
:105420000E461746044620B1006B01F00EF9054602
:1054300008B9BDE8F0810A21686801F078FB804670
:105440000A20FFF76DFD804546D0284601F036F969
:10545000EDE794F8282000203A4484F828202946D3
:10546000224684F82900BDE8F041FFF799BF0022E9
:1054700084F8292094F828203A44D2B284F82820CD
:105480001B7A93421CD8224629460220EBE794F867
:1054900029203A44D2B2052A84F8292007D90021CC
:1054A00094F8282084F82910013284F8282094F8F0
:1054B00028201B7A9A4203D3224629460120D2E7AC
:1054C0002046FFF779FE6868BDE8F04101F01BBB9C
:1054D000224629463046C6E7AB68002BA9D0032EEA
:1054E000F6D801A252F826F0535420008F54200021
:1054F0006F54200033542000014B1888704700BFC0
:10550000F40000202DE9F041012986B006460F463F
:10551000144651DD03A901F0A9FC03AB03CB1B88A2
:10552000206123839DF811306161002B48D0B51CA8
:1055300002AA01A903A801F060FB9DF81380B8F14D
:10554000000F50D0029B2BB16A7815F8023B03EB99
:1055500002239BB2B8F1020FA38335D13349204611
:1055600001F0EBFA6B78237015F8023B63709DF83D
:105570001580B8F1000F50D0019B002B3AD06A780B
:1055800015F8023B03EB0223029A9BB2E38302B9B4
:10559000A383B8F1020F30D1244904F1080001F0CF
:1055A000CCFA6B78237215F8023B6372A81B3B1A86
:1055B0008742C4E90E5300DA002006B0BDE8F0814E
:1055C000B378F51CA376B3E7B8F1030FCFD105F19B
:1055D00008021346611E13F8010D9D4201F8010FE8
:1055E000F9D11546C3E71149204601F0A6FAA4F8FF
:1055F0001C80BCE7A38BE383CBE7B8F1030FD5D1C5
:1056000005F10802134604F1080113F8010D9D424B
:1056100001F8010BF9D11546C8E7044904F1080067
:1056200001F08BFAA4F81E80C0E700BFF0702000E4
:1056300013B50024094B1C70094B1C80FDF7FCF8C6
:10564000009400F58051074B01220748FEF7FAFF4E
:105650000122064B1A7002B010BD00BF2E0E0020B2
:10566000F20C00203D5B2000BC060020290E00202B
:10567000074B82B01B784BB1064B1A7832B9012226
:105680001A70054B1B6A019302B0184702B07047AD
:10569000290E00202E0E00208C6F2000094B82B0B6
:1056A0001B786BB1084B1A7852B1084A127802F095
:1056B000FF012AB91970064B5B6A019302B01847C3
:1056C00002B07047290E00202E0E00202A0E002066
:1056D0008C6F200008B5FFF7E1FF0022014B1A6034
:1056E00008BD00BFCC060020044B1B7823B9044B37
:1056F0001B680BB9FFF7D2BF704700BF300E002008
:10570000CC0600200022094B82B01A70084BC2B2AE
:105710001A70084A084B28B101211B6A11700193C5
:1057200002B0184710705B6AF9E700BF290E00202D
:105730002A0E00202E0E00208C6F200037B50B4B58
:105740001A7802F0FF056AB901241C70084B1D701D
:10575000FDF772F8009500F58051064B2246064889
:10576000FEF770FF012003B030BD00BF290E0020FE
:105770002A0E00203D5B2000BC06002037B50B4BF5
:1057800005461B780C4673B1FDF756F8231A022B19
:105790004FF0000348BF841C00930122044B2146B4
:1057A0002846FEF74FFF03B030BD00BF290E002092
:1057B0003D5B200013B5224C22680AB9FFF76EFF4B
:1057C000FFF7B0FA032823D0FFF70AFB00B31D4B05
:1057D0009B68984700281BDBFFF7A4FAC0B1FFF7CE
:1057E000FFFAA8B11B20FFF7ADFB174901F0A8F99C
:1057F00050B11320FFF794FB206058B9FFF74EFF1C
:105800001248FEF71BFD0DE0FFF7A4FB0028F0D1C6
:1058100002B010BDFFF72CFF00230D4A04210B48F6
:10582000FEF702FDFFF7BAFB0028F1D1FFF7DEFB20
:10583000084BDB68019302B0BDE81040184700BF79
:10584000CC060020C47020006E0E002098060020B8
:10585000D5562000887020002DE9F04F784E8BB08F
:10586000337805903BB9774B1B7823B9052528463B
:105870000BB0BDE8F08FFFF7B3FA0028F6D07249FD
:105880001A20FFF753FBFFF765FB80460C20FFF75C
:1058900047FBA8B1FFF7A4FA4FF001096B4C019048
:1058A0006568FFF73BFA0199A847694FA36987F834
:1058B00000900293984768B100233B700125D6E71A
:1058C00001210B20FFF724FB624B5B6898470028FF
:1058D000E0DACBE7E3690393984705460028EBD16C
:1058E000FFF7DCFE337886F80090DBB20493059B6B
:1058F0007BBB4FF006096FF0030A6FF00F0BFCF74C
:105900009BFF0690FFF7B4FE0698AAEB00030693F0
:10591000FCF792FF069BC342F9D46369984748B9E4
:105920000190FFF7BBFE01983870FFF7B7FE049BAC
:105930003370C3E7FFF7B2FEFCF77EFFABEB00036B
:105940000693FCF779FF069BC342F9D4B9F101092C
:10595000D5D1B8F1000F01D1FFF78AFE0A20FFF779
:10596000DFFA5FFA80FBFDF7EBF8FCF765FF814695
:10597000394B1B1A0693DFF8E4A0AAEB090AFCF7DF
:105980005BFF1AEB000F4BD5FDF7DAF8B8F1000F0B
:105990003ED0A36801989847FCF74EFF6FF00C03C8
:1059A0001B1A0793FCF748FF079BC342F9D4B8F1D1
:1059B000000FE4D1029B9847002835D0FCF73CFF4C
:1059C0006FF01409A9EB0009FCF736FF19EB000F83
:1059D000FAD42369032109A8984703282DD19DF8FB
:1059E00026305B4529D100244FF00109FFF756FE10
:1059F000049B337000233B70002C7FF45FAFB8F141
:105A0000000F7FF434AF994514BF1D4602252EE7E1
:105A1000059B002BBDD0FCF70FFF069BC342B8D4FB
:105A200000244FF00009E1E7039B98470028C5D107
:105A30006369984700289ED1C0E70124F1E700BFC1
:105A4000290E00202A0E00206E0E00208C6F2000F0
:105A5000300E0020C4702000DEFDFFFFB0EFFFFF1E
:105A60002DE9F14F074688461446002A5DD0304B99
:105A70001E685EB15068FFF71FF901231A464146C0
:105A8000384601B0BDE8F04F01F023BA1546DFF803
:105A9000A4A0DFF8A4B0284600F010FE8146686894
:105AA000FFF70AF90C20FFF73BFAE8B9B9F1000F4C
:105AB00003D001211320FFF72BFA51461A20FFF7DC
:105AC00035FA01210B20FFF723FADBF80430984761
:105AD000002802DA01230522D1E701210C20FFF77B
:105AE00017FA686801F015F84D46002DD3D120460D
:105AF00000F0E4FD05466068FFF7DEF81320FFF7CD
:105B00000FFA81463046FFF7A7FE032804460CD063
:105B1000024601234146384601F0DBF92CB925B194
:105B20002C460126B9F1000FE1D101B0BDE8F08F9C
:105B3000CC0600206E0E0020C470200040F2B1128E
:105B40002DE9F3476D4C05462388934215D0B3F5F4
:105B5000D97F04D2002B00F08680002393E040F22E
:105B6000E31293422ED040F202229342F5D1002359
:105B7000634A1370634A137007E0624A1378013373
:105B8000DBB2012B137000F282805F4B1A78002A7F
:105B900070D15E4A1268002A6CD11B780BB9FFF7EE
:105BA00067FD5B4B5B699847002861D10122544B2C
:105BB0001A70FCF741FE574B574A186000231370C8
:105BC000564A1370504B564E1B78002B7DD13378BC
:105BD000002B7AD0FCF730FE6FF4CC724D4B1B6873
:105BE000C01A1044002870DA494FDFF82C917B6905
:105BF0009847B84618B199F800000130C0B2474F35
:105C0000D8F818A03B7889F8000001333B70D047E2
:105C1000002854D0002389F800303B78D8F81C8045
:105C20000A2B04D9D04710B9C04700284BD0C04731
:105C300000284AD13B4B1B7893B12E68FCF7FCFD42
:105C4000331A13F1120F4FF0000348BF811C009369
:105C500058BF06F11401344B01222846FEF7F2FC2E
:105C600040F2E3130FE0FCF7E7FD304B18607EE7EE
:105C7000FFF73AFDFCF7E0FD00F110012846FFF7C1
:105C80007DFD40F2B113238002B0BDE8F0871C4BCC
:105C90001B78002B8DD1254E336803F5805333607C
:105CA000FCF7CAFD3368C3F1A003C3427FF55FAFC1
:105CB00031682846FFF762FD40F20223E3E799F8D6
:105CC0000030052BA9D9FFF70FFD3378002BE2D068
:105CD0000F4EB369984760B1FCF7AEFD0D4B1B68E2
:105CE000C01A6FF4CC7318440028D4DBFFF7FCFC17
:105CF000D1E7F36998470028EED1F7E7F20C0020CE
:105D00002C0E00202B0E0020300E0020CC06002090
:105D10008C6F2000C80600202F0E00202D0E0020C2
:105D20002E0E0020290E00203D5B2000B80600202A
:105D300008B5024B1B689847023008BD7C702000F4
:105D400038B50C4B9B689847041E02DA4FF0FF30C1
:105D500038BDFFF71DF803780546002BF6D1022069
:105D6000FEF7C2FF0028F1D06878FEF7D1FFA01C33
:105D7000EEE700BF7C70200070B50220FFF73AF814
:105D800010B94FF0FF3070BDFEF7C8FF0025057059
:105D90000446FEF7C7FF6070FFF722F80446FFF7DE
:105DA000C7FF20442A2812DCC0F12B00C4B2FEF742
:105DB000EFFF0646FEF7B6FF22462946304400F0C4
:105DC00003FBFEF7AFFF204480B2FEF7A1FF044BB8
:105DD0005B689847041ED4DBFEF7B6FFA01CD2E731
:105DE0007C702000014B9B68184700BF607020004A
:105DF00070B504460D4614200121FFF789F8034BC6
:105E000029462046BDE870409B68184788702000EE
:105E1000832937B5044602D1364800F055FE238861
:105E200043B1532B62D1344800F0EAFB00282DD156
:105E3000012059E0314D0E21EB6A01209847AB6AF1
:105E400001A92F4D012098472E4800F076FB6A7873
:105E500029782D48FDF7D6FD01992C48FDF7D2FD94
:105E60002B4800F06AFB812122482A4AFEF76AFE8D
:105E70006978294B29481970FDF7C4FD4FF4C071AA
:105E80001D4800F0B4FB53232380D1E7224B1B783D
:105E9000012BF3D0224D2B68092B1BDC0120FCF7D2
:105EA000E3FA14211F48FEF7F5FF1F210D20FFF72D
:105EB0002FF800211520FFF72BF80E48FEF754FEAF
:105EC000194800F03AFB2B68012001332B60FCF7E6
:105ED000D3FAD3E71548FDF795FD0748FEF76AFAB0
:105EE000002302202B60238003B030BD0023032059
:105EF0002380F9E7D0060020EC0600208C6F2000FC
:105F00006E0E0020587320007F73200094732000D1
:105F1000AC732000E8702000310E0020D473200004
:105F2000E8060020D7732000EA73200002742000E6
:105F300073B50C460220FCF797FA25786478FEF7D3
:105F400027FF06460420FEF7EBFF00B20090334621
:105F5000224629460548FDF755FD0220FCF78CFA3C
:105F6000034802B0BDE87040FDF74CBD0A73200045
:105F70004273200053B94AB9002908BF00281CBF4A
:105F80004FF0FF314FF0FF3000F074B9ADF1080C65
:105F90006DE904CE00F006F8DDF804E0DDE9022347
:105FA00004B070472DE9F0478C460446089E002B4C
:105FB00040F086808A42154648D9B2FA82F24AB148
:105FC000C2F1200701FA02F320FA07F7954047EAE9
:105FD000030C94404FEA154EBCFBFEF71FFA85F800
:105FE0000EFB17C307FB08F9210C41EA034399454F
:105FF00009D9EB1807F1FF3180F0E180994540F2B3
:10600000DE80023F2B44A3EB0903B3FBFEF00EFB43
:10601000103300FB08F1A4B244EA0344A14209D9B9
:106020002C1900F1FF3380F0C880A14240F2C580F6
:1060300002382C4440EA07400027641A1EB10023AE
:10604000D440C6E900433946BDE8F087002A54D061
:10605000B2FA82F2002A40F0B4800127491B4FEACD
:1060600015481FFA85F9B1FBF8FE08FB1E1109FB64
:106070000EF04FEA144C4CEA0143984207D9EB1852
:106080000EF1FF3102D2984200F2EB808E461B1ACD
:10609000B3FBF8F008FB103309FB00F9A4B244EAA3
:1060A0000344A14507D92C1900F1FF3302D2A145C1
:1060B00000F2DB801846A4EB090440EA0E40BDE77D
:1060C0008B4208D9002E75D00027C6E9000138465A
:1060D0003946BDE8F087B3FA83F77FB98B4202D324
:1060E000824200F2BC80841A61EB030301209C46CB
:1060F000002EA8D0C6E9004CA5E7FFDEC7F12005B9
:10610000BB4022FA05FC4CEA030C21FA05F44FEAE5
:106110001C4EB4FBFEF91FFA8CF80EFB194420FA52
:1061200005F3B94009FB08FA19430B0C43EA044490
:10613000A24502FA07F200FA07F30BD91CEB04049C
:1061400009F1FF3080F08980A24540F28680A9F1F4
:1061500002096444A4EB0A04B4FBFEF00EFB1044F5
:1061600000FB08FA89B241EA0444A24508D91CEBB5
:10617000040400F1FF316CD2A2456AD902386444AC
:1061800040EA0940A0FB0289A4EB0A044C454146C1
:10619000CE4655D352D0002E6AD05A1A64EB0E0464
:1061A00004FA05F522FA07F3FC401D43C6E9005442
:1061B000002748E73746304645E718463AE70F4696
:1061C00021E79540C2F1200321FA03F04FEA154878
:1061D000B0FBF8F71FFA85F908FB170E24FA03FC49
:1061E000914007FB09FA4CEA0101080C40EA0E4015
:1061F000824504FA02F407D9281807F1FF332AD29E
:10620000824528D9023F2844A0EB0A00B0FBF8FCE5
:1062100008FB1C000CFB09F389B241EA00418B42E8
:1062200008D969180CF1FF3011D28B420FD9ACF1AB
:10623000020C2944C91A4CEA074714E74345AAD27D
:10624000B8EB020169EB0C0201389646A3E78446DD
:10625000F0E7084694E71F46D6E781467AE73846D6
:1062600046E7AEF1020E2B4411E702382C4422E738
:106270003746E8E6704700BF032A70B414D940EAF5
:106280000105AD0704460B4622D11D682668194654
:10629000AE42204603F1040304F1040418D1043A89
:1062A000032A20461946F0D8541E72B103780A78A2
:1062B000934208BF241806D00CE010F8013F11F8F3
:1062C000012F934206D1A042F7D1002070BC704745
:1062D000541EEBE7981A70BC704700BF844641EA31
:1062E000000313F0030349D1403A23D30B68036042
:1062F0004B6843608B688360CB68C3600B69036144
:106300004B6943618B698361CB69C3610B6A03622B
:106310004B6A43628B6A8362CB6AC3620B6B036313
:106320004B6B43638B6B8363CB6BC36340304031F8
:10633000403ADBD230320BD30B6803604B684360CA
:106340008B688360CB68C36010301031103AF3D291
:106350000C3205D351F8043B40F8043B043AF9D21F
:10636000043208D0D2071CBF11F8013B00F8013BF2
:1063700001D30B8803806046704700BF082A13D3FF
:106380008B07B1D010F00303AED0C3F10403D21ACF
:10639000DB071CBF11F8013B00F8013BA4D331F827
:1063A000023B20F8023B9FE7043AD9D3013A11F8A7
:1063B000013B00F8013BF9D20B7803704B78437036
:1063C0008B78837060467047F0B4860746D0541EC1
:1063D000002A3CD0CAB2034602E014F1FF3436D39F
:1063E00003F8012B9D07F8D1032C29D9CDB245EA3A
:1063F00005250F2C45EA054533D9A4F110063609C9
:1064000003F1200707EB061703F1100242E90455D8
:1064100042E902551032BA42F8D1721C14F00C0F46
:1064200003EB021204F00F0613D0331F23F0030313
:106430000433134442F8045B9342FBD106F0030497
:106440002CB1C9B21C4403F8011B9C42FBD1F0BC27
:10645000704734461346002CF3D1F8E71446034640
:10646000C2E71A462646E0E7FEE708B5FBF70EFF4F
:10647000F7B500240646254627463046FBF7F4FFCD
:106480000197019BAB4215DB3046FBF7F5FFC5F5E5
:10649000C8750197019B9D4211DC0134B4F5487F1A
:1064A00001D103B0F0BDB4F5C87FCCBFC4F54875C9
:1064B0002546E2E700BF019B01330193E1E700BFFE
:1064C000019B01330193E5E7FCF78CB8FCF736B983
:1064D00070470020FCF704BA0120FCF701BA002045
:1064E000FCF7C2BB0120FCF7BFBB0220FCF7BCBB22
:1064F0000320FCF7B9BB10B50C46FCF79FFE204605
:10650000BDE81040FCF7CCBE10B50446C1B2002077
:10651000FCF7FCFA204610BD70B50E460024451E5F
:106520006B1C02D015F8010F08B9204670BDB442AB
:10653000FBD0FFF7E9FF0134F2E738B50546002448
:1065400015F8010B20B1FFF7DFFF0134002DF7D163
:106550000A20FFF7D9FF204638BD002070470120F0
:10656000704710B50446302200210E20FCF7CCFB0A
:106570006CB1012C0CD142F210730011A0F28E50BC
:1065800058432A2390FBF3F000F5C340283010BD98
:106590004FF00040FBE7002070470120704710B526
:1065A0000446302200210F20FCF7AEFB5CB1012C29
:1065B00003BF40F6F253584347F6F0734FF00040E4
:1065C00008BF90FBF3F010BD08B5084612B11146A4
:1065D000FFF7A2FF002008BD10B5041F54F8040FF8
:1065E00000B910BD0021FEF709F8F7E7704710B5B4
:1065F000044600F012F82046BDE81040FDF7B2BE98
:10660000C068B0FA80F040097047837BDB0701D592
:10661000FDF7EABE7047FFF75BBF10B54160044667
:10662000FCF7DCF8206010BD10B50446FCF7D6F886
:106630002368C3F101030344606898422CBF002023
:10664000012010BD00230360704700687047006898
:1066500008B9704718460368002BFBD170470368E0
:1066600010B53BB1002499421A6806D11CB90260EA
:1066700000221A6010BD2260FAE71C46002AF9D0F9
:106680001346F0E738B50546FFF7E9FF00230B6036
:10669000FFF7DDFF08B9296038BD0160FCE738B5B8
:1066A0000446FFF7DCFF03680B60216038BD036818
:1066B000002003B9704701301B68FAE700B1006899
:1066C000704710B50446428800214068FFF77CFE01
:1066D00023886288A0685A43BDE810400021FFF774
:1066E00073BE002310B54188994201DC002009E007
:1066F0004268D418D25C32B90122227002888068C4
:1067000003FB020010BD0133EEE7002330B58268C1
:1067100044889C4201DCFF2008E08A4207D141689E
:10672000CA5C0AB1013ACA544268D05C30BD0588DF
:1067300001332A44EDE782688A4208D843880088FA
:1067400000FB032081422CBF002001207047002065
:1067500070470023013A01600271437183717047F1
:1067600010B5427983790479D31A34EA030308D047
:10677000036899544379027901331340437101202E
:1067800010BD0020FCE7837942790179D21A0A42D0
:106790001FBF0268D25C01330B401ABF83711046E1
:1067A0004FF0FF307047831C0020023313F8042C95
:1067B00002B9704713F8032C1044F6E7072B2DE9B4
:1067C000F8430746884615461C4607DC1A46294604
:1067D0004046FEF7B5F83870BDE8F883DE107AB9A8
:1067E00018F805307B550135AE42F9DC14F007028C
:1067F000F2D0002108EB0600FEF7A2F8B855EBE74F
:106800004FF0000908EB090008222946FEF798F826
:1068100007F8090009F101094E45F3DC14F00702FD
:10682000DAD02946E6E72DE9F743FEF7B1FA044648
:106830000220FEF759FA20B90025284603B0BDE82A
:10684000F0836378207800EB032080B2FEF76AF9CA
:1068500005460028F0D0FEF79BFA8046287B10F012
:10686000070318BF012303EBD000FEF73DFA002811
:10687000E2D00026B146AC68023414F8023C002B8A
:10688000DBD0192B14F8017C08EBE60106F00702B7
:106890000BD901A83B46FFF791FF01A914F8020CA0
:1068A000FEF744FB3E440234E7E73B4601A8ADF85F
:1068B0000490FFF783FF9DF805109DF8043014F84D
:1068C000020C43EA0121FEF723FBEBE7072B2DE93E
:1068D000F0410FDC1478C1F11001CB1A04FA03F374
:1068E0000178C3F307220A43417802700B434370D7
:1068F000BDE8F081DC10C9B9555C45540131A142B5
:10690000FADB13F00703F3D0125DC3F108052A4147
:10691000C3F11003055D02FA03F3C3F307222A4310
:10692000011902554A7813434B70E1E705460026EA
:10693000C1F1080E975D95F800C007FA0EF7C7F38E
:1069400007284CEA080C05F801CB95F800C0013681
:106950004CEA0707A6422F70ECDB13F00703C7D001
:10696000125DC3F1080631440A41D2B2C3F11003EB
:10697000015D02FA03F3C3F307220A430519025526
:106980006A7813436B70B3E72DE9F743047B054640
:1069900014F0070318BF012303EBD404A01CFEF777
:1069A00029FAA8B1FEF7BAF9AB880370AB881B0AC5
:1069B0004370FEF7B3F9871C224600213846FFF7E3
:1069C00003FDAC680025023414F8020C18B901204C
:1069D00003B0BDE8F083192814F8016C07EBE50853
:1069E00005F007090AD9FEF7ADFA334602464946D3
:1069F0004046FFF76BFF35440234E5E7FEF790FAB7
:106A00003346ADF8040001AAF1E710B5FEF70EF920
:106A1000FEF730FAFEF7DAF800F058F8BDE810405B
:106A20004FF4E1234FF4F0524FF400710220FEF7CF
:106A30003DB87047F8B50F46FEF7AAF90688044638
:106A4000FEF770F9B3000233834203D80025023405
:106A5000AE4200DCF8BD54F8041B38460A0C89B27B
:106A6000FEF7C6F80135F3E7FEF756B8FDF7AEBFFF
:106A700003691B6803B11847704703695B6803B17A
:106A80001847704738B50D46FEF74CF8044620B15C
:106A900085602846FEF794F8207338BD43695B682B
:106AA00003B11847704713B504461A20FEF74AFA97
:106AB000014601A800F041F863691B6813B101A900
:106AC0002046984702B010BDFFF7CEBFFEF716B8BC
:106AD0000EF00F000D2808BF00F00EB800982DE949
:106AE000F04F00F1240181F3098890E8F08F0EF057
:106AF0000F000D2818BF7047EFF3098020E9F04F11
:106B00000990BDE8F08F006800F1B6018230FEF711
:106B1000D7B910B5046804F1B60104F18200FEF79C
:106B2000CFF92046FEF73CF9A4F8800010BD0368B9
:106B300003EB4101B1F8820070470B880380704776
:106B400008B50222FFF798FBB0FA80F0400908BDB3
:106B500030B591B0FEF71CF90446FEF7E3F86A463B
:106B600001462046FEF7CEFC044620B94FF0FF3424
:106B7000204611B030BDFEF7B7F80028F6D09DF8DA
:106B800010101420FEF7C4F99DF81730ABB1BDF812
:106B90001C50FEF7B1FC854205D04FF6FF73BDF8DF
:106BA0001C209A42E2D169469DF8170000F0C0F817
:106BB00018B969461B20FEF7B9F902A91A20FEF799
:106BC000B5F99DF812101320FEF7A2F99DF81530C3
:106BD00053B99DF81A100A20FEF79AF99DF81A1079
:106BE0000E20FEF795F9C3E74FF6FF71F3E701209A
:106BF000FEF730BA0020FEF72DBA30B530B3037A75
:106C0000022B2CD1C579437A04792DB9002B4AD1B6
:106C1000012C48D1204615E053EA04001DD0032D75
:106C20002FD1032B2FD1B4FA84F04009002309E0BF
:106C3000181C18BF0120002CF8D1023B012B8CBF7F
:106C40000023012301B10B6002B1106030BD023B93
:106C5000012B8CBF00230123DCE701201BE003781C
:106C6000022B22D0037953B9437A13F0030318BFE0
:106C70000123C07910F0030018BF0120E2E70023D0
:106C8000F7E7022DD4D0A3F1020CDCF1000040EBB9
:106C90000C00002CCAD1022DCFD0032DC6D19C1ED2
:106CA00063426341CEE7002CD1D000200346C9E700
:106CB000002337B50B608B80437D0D46D9075CBF41
:106CC00001232B70037E0446012B0BD8C37D9A074A
:106CD0002CD0437E9B0729D0C28B838B9A4225D12F
:106CE0000123237501AA694604F11000FFF785FF0F
:106CF000009B0BB10223EB70019B0BB102236B7065
:106D0000E37D03F00303022B03D0032B0CBF082306
:106D10000023AB70637E03F00303022B03D0032B2D
:106D20000CBF082300232B7103B030BD0023D8E72C
:106D300002280CBF022308230B448B4201D10120FF
:106D4000704713F8012DFF2AF7D00020704707B5D0
:106D50006946FFF7ADFF9DF800309DF80100023352
:106D600003449DF8020003449DF8030003449DF88A
:106D7000040003449DF80500184403B05DF804FBCB
:106D800043788278DB00120102F0100203F008035E
:106D90001343027802F007021343C278520102F053
:106DA000200213430279920102F0400213430B7058
:106DB0004379427A03F0010343EA82138279520055
:106DC00002F002021343C279920002F00C02134354
:106DD000027A120102F0300213434B70704737B54C
:106DE00004460D466946FFF763FF04F1100029468B
:106DF000FFF7C6FF9DF80030012B02BFA37E0320E2
:106E0000AB709DF8013018BF0220022B08D1A28B75
:106E1000431C2A54A28BDBB20230120AC0B2EA54DD
:106E20009DF802301844C0B2C21AD2B2B3B99DF86C
:106E30000330022B08D1E28B431C2A54E28BDBB2D5
:106E40000230120AC0B2EA549DF8043008341844E3
:106E5000C0B2C21AD2B22BB903B030BD013BE15C63
:106E6000A954E1E7013BE15CA954F2E71FB50C46E8
:106E70000278437802F007018DF80410C2F3C001D4
:106E80008DF80510C2F300118DF80610C2F3401101
:106E9000C2F380128DF8082003F001028DF809205A
:106EA000C3F340028DF80A20C3F381028DF80B2052
:106EB000C3F301129B098DF80D308DF80C208DF86D
:106EC000071001AB03CB1B8820606160238104B0F5
:106ED00010BD30B40D460446114620B11A4628466E
:106EE000234630BC184730BC70471020704770B53F
:106EF000044600200D46FEF7AFFC0328024606D0EC
:106F000029462046BDE870400123FFF7E2BF70BD6F
:106F100070470000687120008D242000E9242000C3
:106F2000000000000100000001000000010000005E
:106F300000C0004000410D400000000008000000BB
:106F40002C00000000000001FFFFFFFF0500000013
:106F500002000000020000000200000000D000401B
:106F600008410D4002000000080000002C00000055
:106F700002010200FFFFFFFF060000000372200075
:106F800007722000167220001A722000513420006F
:106F90003D322000A1322000F76420006D33200034
:106FA0001D312000712E2000892E2000492F200045
:106FB000312E2000BD2F200059312000A93520009E
:106FC0003D33200007000000FF0000000500000026
:106FD000ED00000003000000D500000001000000EB
:106FE000C500000000000000B6000000FFFFFFFF2A
:106FF000B0000000FDFFFFFFA1000000FBFFFFFF4E
:1070000091000000F9FFFFFF88000000F7FFFFFF7D
:1070100072000000F5FFFFFF62000000F3FFFFFFBA
:1070200058000000F1FFFFFF42000000E8FFFFFFF3
:107030000000000041722000636520005B652000B5
:107040005F652000557220009F6520009765200035
:107050009B6520002768200089692000A767200021
:10706000E77220000B6A200099492000356A200051
:10707000336A2000A76A20009D6A2000F56B20007B
:10708000EF6B2000516B2000F27220004D53200066
:107090000552200085512000915120009D51200073
:1070A000A9512000F772200031562000EF6E200019
:1070B000615A2000B55720003D5720000557200099
:1070C000EB6E2000315D2000795D2000415D2000E5
:1070D00002732000116F2000F15D2000E55D2000AB
:1070E000E400002000000000315F200000000000EC
:1070F0000000436F6E74696B692D386438633237F2
:10710000333135005A6F6C65727469612052452DB8
:107110004D6F7465207265766973696F6E204220C9
:10712000706C6174666F726D0052696D6520636F7B
:107130006E6669677572656420776974682061643A
:1071400064726573732000253032783A002530323E
:10715000780A00204E65743A2000204D41433A20C1
:1071600000205244433A2000427574746F6E00430D
:1071700043323533383A2049443A20307825303488
:107180006C782C207265762E3A20504725642E2587
:10719000642C20466C6173683A20256C75204B691D
:1071A000422C205352414D3A20256C75204B6942A8
:1071B0002C204145532F5348413A2025752C20451A
:1071C00043432F5253413A2025750A53797374650E
:1071D0006D20636C6F636B3A20256C7520487A0ACA
:1071E000492F4F20636C6F636B3A20256C752048E4
:1071F0007A0A52657365742063617573653A202558
:10720000730A00504F520045787465726E616C20AD
:1072100072657365740057445400434C44206F7288
:1072200020736F6674776172652072657365740090
:107230006363323533382052462064726976657252
:10724000004F6E2D436869702054656D70657261E2
:10725000747572650056444433002020202020209D
:1072600020202020202020202020303030303030BE
:1072700030303030303030303030303132333435FF
:107280003637383941424344454600303132333491
:1072900035363738396162636465660030580030CE
:1072A00078002B00286E756C6C29002500437469EA
:1072B0006D65722070726F63657373004576656EDD
:1072C000742074696D65720053657269616C206425
:1072D00072697665720053656E736F727300008019
:1072E000C0E0F0F8FCFEFF52696D650000001A1066
:1072F000000043534D4100436F6E74696B694D410B
:1073000043006E756C6C7365630042726F616463F9
:10731000617374206D657373616765207265636561
:10732000697665642066726F6D20307825782578DF
:107330003A2027257327205B525353492025645D4B
:107340000A00416464206E65696768626F75722027
:10735000746F206C697374000A2D2D2D2D2D2D2D29
:107360002D2D2D2D2D2D2D2D2D2D2D2D2D2D2D2D4D
:107370002D2D2D2D2D2D2D2D2D2D2D2D2D2D005245
:10738000494D452061646472203D2009307825789C
:1073900025780A005573696E6720726164696F20F1
:1073A0006368616E6E656C2025640A002D2D2D2D9D
:1073B0002D2D2D2D2D2D2D2D2D2D2D2D2D2D2D2DFD
:1073C0002D2D2D2D2D2D2D2D2D2D2D2D2D2D2D2DED
:1073D0002D2D2D002578004920616D20796F757263
:1073E000206E65696768626F720042726F616463E4
:1073F000617374206D6573736167652073656E7466
:107400002E002D2D2D2D2D2D2D2D2D2D2D2D2D2DD8
:1074100053746F7070696E67207468652062726F54
:107420006164636173742D2D2D2D2D2D2D2D2D2D2A
:107430002D2D2D2D2D2D2D2D2D2D200A0D00466CA1
:0F7440006F6F64696E672050726F6365737300BE
:1074500044702000146F20003470200000000000F1
:1074600000000000307220001935200000000000EC
:10747000C96520000000000000000000AD7220007F
:10748000414120000000000000000000BC7220000C
:10749000B94220000000000000000000C872200077
:1074A000914620000000000000000000D67220007D
:1074B000954720000000000004000800030E002093
:1074C0000C040020BE0008000B0E0020FC0600206B
:1074D0000C000800170E00206C050020340002008C
:1074E0001F0E0020D00500200C000800210E0020F7
:1074F00038060020000000003E742000115E2000CD
:0875000000000000CDAB1A01F0
:087508009CEAFF7F0100000076
:020000040027D3
:10FFD400FFFFFFF30000000000202000FFFFFFFFF1
:10FFE400FFFFFFFFFFFFFFFFFFFFFFFFFFFFFFFF1D
:0CFFF400FFFFFFFFFFFFFFFFFFFFFFFF0D
:040000050027FFD4FD
:00000001FF
